:100000000C9426040C9438040C9438040C94462B5D
:100010000C9488340C9438040C9438040C943804F0
:100020000C9438040C9438040C9438040C94E016A6
:100030000C9438040C9438040C9438040C94380450
:100040000C94FE180C9438040C946E140C94301418
:100050000C9438040C9438040C9438040C94380430
:100060000C9438040C943804000BEB12EB120A0BBE
:10007000170B240B310BEB12350BEB12430BEB126E
:100080004D0B570B880BEB12EB12EB12610B6E0B47
:100090007B0BAD11BE11DD11BE11E111F411E711A1
:1000A000ED110A1210121F1236125A126412701237
:1000B0007A1204230A230D23102315231D2327233B
:1000C0009323932393232F2332233B2344239323EC
:1000D000932393239323932393234C235623622325
:1000E0006A236D2376237F238523DD2FE02FE52FE1
:1000F000E82FEB2FEE2FF12FF42FF72FFA2FFD2FF4
:100100000930093009300930093009300930093027
:1001100003300030063058305B305E306130643080
:1001200067306A306D30084AD73B3BCE016E84BCE5
:10013000BFFDC12F3D6C74319ABD56833DDA3D0041
:10014000C77F11BED9E4BB4C3E916BAAAABE00008A
:1001500000803F05A84CCDB2D44EB93836A9020C68
:1001600050B9918688083CA6AAAA2ABE0000008041
:100170003F003E0D0A002C4C696D3A002C52583A53
:10018000002C4275663A002C002C57506F733A00D1
:100190002C002C4D506F733A003C446F6F72003C42
:1001A000436865636B003C416C61726D003C486F55
:1001B0006D65003C486F6C64003C52756E003C49B4
:1001C000646C65005D0D0A005B302E396A2E32309A
:1001D0003136303732363A000D0A003D00244E00E9
:1001E0005D0D0A00205300204600205400204D38A9
:1001F00000204D3900204D3500204D3400204D3376
:1002000000204D3200204D3100204D300020473974
:100210003400204739330020473931002047393036
:10022000002047323000204732310020473139006A
:100230002047313800204731370020470047333806
:100240002E0047383000473300473200473100471F
:1002500030005B005D0D0A005B544C4F3A005D0DB1
:100260000A002C005B4739323A005D0D0A002C0071
:100270003A003330003238005B47005D0D0A003A27
:10028000002C005B5052423A00290D0A00206D619B
:10029000782074726176656C2C206D6D002061632E
:1002A00063656C2C206D6D2F7365635E3200206D6D
:1002B000617820726174652C206D6D2F6D696E0000
:1002C0002C20737465702F6D6D007A0079007800B2
:1002D0002028003D0024002028686F6D696E67208B
:1002E00070756C6C2D6F66662C206D6D290D0A0083
:1002F0002028686F6D696E67206465626F756E6334
:10030000652C206D736563290D0A2432373D00206A
:1003100028686F6D696E67207365656B2C206D6D45
:100320002F6D696E290D0A2432363D002028686F32
:100330006D696E6720666565642C206D6D2F6D6933
:100340006E290D0A2432353D00290D0A2432343D30
:10035000002028686F6D696E672064697220696E7D
:1003600076657274206D61736B3A002028686F6D3A
:10037000696E67206379636C652C20626F6F6C29EE
:100380000D0A2432333D00202868617264206C69B4
:100390006D6974732C20626F6F6C290D0A243232E0
:1003A0003D002028736F6674206C696D6974732C2E
:1003B00020626F6F6C290D0A2432313D00202872B3
:1003C00065706F727420696E636865732C20626F4C
:1003D0006F6C290D0A2432303D00202861726320A1
:1003E000746F6C6572616E63652C206D6D290D0AEA
:1003F0002431333D0020286A756E6374696F6E2066
:10040000646576696174696F6E2C206D6D290D0AC3
:100410002431323D00290D0A2431313D002028735A
:100420007461747573207265706F7274206D61737E
:100430006B3A00202870726F62652070696E2069C7
:100440006E766572742C20626F6F6C290D0A2431F0
:10045000303D0020286C696D69742070696E7320CE
:10046000696E766572742C20626F6F6C290D0A2498
:10047000363D0020287374657020656E61626C657E
:1004800020696E766572742C20626F6F6C290D0A7C
:1004900024353D00290D0A24343D0020286469726A
:1004A00020706F727420696E76657274206D61734E
:1004B0006B3A00290D0A24333D00202873746570BF
:1004C00020706F727420696E76657274206D61732E
:1004D0006B3A002028737465702069646C65206431
:1004E000656C61792C206D736563290D0A24323D9A
:1004F000002028737465702070756C73652C2075EE
:10050000736563290D0A24313D0024303D00242405
:10051000202876696577204772626C207365747451
:10052000696E6773290D0A24232028766965772070
:100530002320706172616D6574657273290D0A24E0
:100540004720287669657720706172736572207321
:1005500074617465290D0A2449202876696577201D
:100560006275696C6420696E666F290D0A244E20DD
:100570002876696577207374617274757020626C77
:100580006F636B73290D0A24783D76616C75652065
:100590002873617665204772626C20736574746994
:1005A0006E67290D0A244E783D6C696E65202873AC
:1005B000617665207374617274757020626C6F630C
:1005C0006B290D0A24432028636865636B206763E9
:1005D0006F6465206D6F6465290D0A245820286BAF
:1005E000696C6C20616C61726D206C6F636B290D9E
:1005F0000A2448202872756E20686F6D696E672026
:100600006379636C65290D0A7E20286379636C65C4
:10061000207374617274290D0A212028666565644F
:1006200020686F6C64290D0A3F202863757272651B
:100630006E7420737461747573290D0A6374726C1F
:100640002D7820287265736574204772626C290DBD
:100650000A000D0A4772626C20302E396A205B272F
:10066000242720666F722068656C705D0D0A005D3E
:100670000D0A00526573746F72696E672064656657
:1006800061756C74730050676D20456E640043683B
:1006900065636B20446F6F720044697361626C65BF
:1006A0006400456E61626C65640043617574696FD6
:1006B0006E3A20556E6C6F636B6564002724482783
:1006C0007C2724582720746F20756E6C6F636B0035
:1006D000526573657420746F20636F6E74696E75F4
:1006E00065005B000D0A00486F6D696E67206661EA
:1006F000696C0050726F6265206661696C004162CE
:100700006F727420647572696E67206379636C65BB
:1007100000536F6674206C696D697400486172647F
:10072000206C696D697400414C41524D3A20000DB6
:100730000A00496E76616C69642067636F646520A6
:1007400049443A00556E646566696E656420666565
:100750006564207261746500556E737570706F7298
:1007600074656420636F6D6D616E64004D6F6461CC
:100770006C2067726F75702076696F6C6174696F39
:100780006E004C696E65206F766572666C6F7700DF
:10079000486F6D696E67206E6F7420656E61626C64
:1007A000656400416C61726D206C6F636B004E6F0D
:1007B000742069646C6500454550524F4D20726548
:1007C0006164206661696C2E205573696E672064D0
:1007D000656661756C74730056616C7565203C20AC
:1007E0003320757365630053657474696E672064A4
:1007F000697361626C65640056616C7565203C20AC
:100800003000496E76616C69642073746174656D43
:10081000656E7400426164206E756D62657220665B
:100820006F726D61740045787065637465642063F0
:100830006F6D6D616E64206C6574746572006572B5
:10084000726F723A20006F6B0D0A000011241FBEF8
:10085000CFEFD8E0DEBFCDBF26E0A0E0B1E001C021
:100860001D92AE3CB207E1F70E943A040C94ED3BB6
:100870000C9400000E94FE130E949F230E947A198C
:100880000E9477348EE1E7E2F5E0DF011D928A9560
:10089000E9F781E08093270578949091BD0694FD57
:1008A000809328050E94CC140E94EA080E946713D6
:1008B0000E94D6130E94FE2A0E94982F0E9415259E
:1008C0000E944E190E94BC290E94FC081092270524
:1008D00010924505109247051092290510922A059D
:1008E0000E940016DFCFEF92FF921F93CF93DF930A
:1008F00000D000D0CDB7DEB77C01122F8091BD06AD
:1009000085FF0BC0C70149835A836B837C830E9498
:10091000FB2D7C816B815A81498180912805823031
:1009200031F149835A836B837C830E94D114809177
:10093000270581111CC00E94642549815A816B8161
:100940007C81882339F00E94F71549815A816B8197
:100950007C81E7CF212FC7010F900F900F900F9050
:10096000DF91CF911F91FF90EF900C946C250F9029
:100970000F900F900F90DF91CF911F91FF90EF900C
:1009800008952F923F924F925F926F927F928F9233
:100990009F92AF92BF92CF92DF92EF92FF920F930E
:1009A0001F93CF93DF93CDB7DEB7E3970FB6F894DD
:1009B000DEBF0FBECDBF988B8F871B013A01098721
:1009C0001A872B873C87C98ADA8AEB8AFC8AAF8A26
:1009D00029960FAD29972A962FAD2A972D872B960A
:1009E0003FAD2B973D8BA4E08A9EC00111249A83D2
:1009F0008983EF85F889E80FF91FF98FE88F840F55
:100A0000951F9B8F8A8FDC018D909D90AD90BC903F
:100A10002081318142815381C501B4010E94203778
:100A20006C8F7D8F8E8F9F8FB4E00B9F8001112480
:100A3000EF85F889E00FF11FF9A3E8A39301200FD8
:100A4000311F3BA32AA3D901CD90DD90ED90FC90FE
:100A50002081318142815381C701B6010E94203734
:100A60006CA37DA38EA39FA32401350177FA709414
:100A700077F87094D701C601B0588D839E83AF83F9
:100A8000B887E981FA81E20DF31D2C8D3D8D4E8DE5
:100A90005F8D60817181828193810E941F376B011C
:100AA0007C01F101E00FF11F2CA13DA14EA15FA13E
:100AB00060817181828193810E941F374B015C01AB
:100AC000A7019601C301B2010E94773A69837A8334
:100AD0008B839C83A50194016D817E818F81988594
:100AE0000E94773A9B01AC0169817A818B819C815C
:100AF0000E94203769837A838B839C83A5019401AC
:100B0000C301B2010E94773A4B015C01A701960133
:100B10006D817E818F8198850E94773A9B01AC011F
:100B2000C501B4010E941F3729813A814B815C8144
:100B30000E949F376B017C019D89992399F02DEBD1
:100B400037E346E055EBC701B6010E94373A87FD0F
:100B50001DC02BED3FE049EC50E4C701B6010E94F7
:100B60001F3712C02DEB37E346E055E3C701B6014E
:100B70000E941538181654F02BED3FE049EC50E474
:100B8000C701B6010E9420376B017C018090B90635
:100B90009090BA06A090BB06B090BC0629853A8515
:100BA0004B855C85CA01B9010E942037A5019401DB
:100BB0000E941F379B01AC01C501B4010E94773A26
:100BC0000E94163B4B015C0120E030E040E05FE317
:100BD000C701B6010E94773A29853A854B855C8525
:100BE0000E94773A9F77A50194010E941F380E94C6
:100BF00004390E9498387E8B6D8BDB01AB2B09F496
:100C000077C14B01A12CB12CBF89BB2381F0C50159
:100C1000B4010E94C7389B01AC0169897A898B892C
:100C20009C890E94773A698B7A8B8B8B9C8BC50150
:100C3000B4010E94C7384B015C019B01AC01C701A4
:100C4000B6010E941F3869877A878B879C87FD854C
:100C5000E4E0FE9FC00111242F853889280F391F39
:100C60003E872D87F101E80FF91FD9012D913D91A4
:100C70004D915C9160817181828193810E941F37C7
:100C8000A50194010E941F3868AB79AB8AAB9BAB7E
:100C900029853A854B855C85CA01B9010E94773A5E
:100CA0009B01AC0160E070E080E090E40E941F379F
:100CB0006B017C012BEA3AEA4AE25EE369857A85B8
:100CC0008B859C850E94773A4B015C0120E030E0E7
:100CD00040E850E4C701B6010E9420379B01AC01F7
:100CE000C501B4010E94773A68A779A78AA79BA794
:100CF00020E030E040E05FE3C701B6010E94773AB0
:100D00006CA77DA78EA79FA7198201E010E0ED894F
:100D1000FE890E171F0709F4EBC0B981BC3008F03B
:100D200040C02CA53DA54EA55FA56D817E818F811C
:100D300098850E94773A6B017C0128A539A54AA5C0
:100D40005BA5C301B2010E94773AA70196010E94F8
:100D500020376B017C012CA53DA54EA55FA5C301E5
:100D6000B2010E94773A4B015C0128A539A54AA53A
:100D70005BA56D817E818F8198850E94773A9B016A
:100D8000AC01C501B4010E941F372B013C01E98170
:100D9000EF5FE983C601D7018D839E83AF83B88758
:100DA00065C0B80180E090E00E94C73829853A8587
:100DB0004B855C850E94773A6B017C010E941A3852
:100DC0006D837E838F839887C701B6010E94083B9D
:100DD0004B015C01AA8DBB8DCD90DD90ED90FC9018
:100DE000F7FAF094F7F8F094AAA1BBA18D919D9128
:100DF0000D90BC91A02D89839A83AB83BC832D81F8
:100E00003E814F815885C701B6010E94773A2B0178
:100E10003C01A501940169817A818B819C810E94AA
:100E2000773A9B01AC01C301B2010E9420372B012C
:100E30003C01A5019401C701B6010E94773A6B01FC
:100E40007C012D813E814F81588569817A818B811A
:100E50009C810E94773A9B01AC01C701B6010E94B8
:100E60001F376D837E838F8398871982A301920138
:100E70006C8D7D8D8E8D9F8D0E942037E88DF98D34
:100E800060837183828393832D813E814F81588556
:100E90006CA17DA18EA19FA10E942037A8A1B9A11C
:100EA0006D937D938D939C93139728A939A94AA993
:100EB0005BA9ED85FE8560817181828193810E94AD
:100EC0002037AD85BE856D937D938D939C9313974D
:100ED0002F8949895A896B897C898F8598890E94D5
:100EE000730480912705811123C00F5F1F4F0FCF1F
:100EF0002F8949895A896B897C89C101E3960FB68C
:100F0000F894DEBF0FBECDBFDF91CF911F910F913F
:100F1000FF90EF90DF90CF90BF90AF909F908F9019
:100F20007F906F905F904F903F902F900C94730440
:100F3000E3960FB6F894DEBF0FBECDBFDF91CF9121
:100F40001F910F91FF90EF90DF90CF90BF90AF90E7
:100F50009F908F907F906F905F904F903F902F90D9
:100F600008958F929F92AF92BF92CF92DF92EF92AD
:100F7000FF9220912805223009F448C04B015C0102
:100F800020E030E040EA51E40E94773A0E940439C0
:100F90000E9498386B017C010E94841620E030E0AA
:100FA0004AE754E4C501B4010E94773A4B015C0161
:100FB00022E32C9DC0012D9D900D1124BC0180E0E9
:100FC00090E00E94C7389B01AC01C501B4010E94AA
:100FD0001F370E9404390E949838CB010E94C22A10
:100FE000C114D10499F00E94D11421E0C21AD10891
:100FF0008091270581110AC08FEF90E722E0815090
:1010000090402040E1F700C00000EACFFF90EF9051
:10101000DF90CF90BF90AF909F908F9008950E94E7
:10102000F32A84E00E947A2B83E00E947A2B0E94AC
:10103000D11480912705811104C00E94FC080C94F2
:10104000FE2A0895CF92DF92EF920F931F93CF93D2
:10105000DF9300D000D0CDB7DEB7FC01809128052A
:10106000823009F480C0122F6F0149835A836B8349
:101070007C830E94841610924305802F0E949B2F30
:101080000E94AD2F49815A816B817C81882391F028
:101090009FB7F894809147058061809347059FBF73
:1010A00049835A836B837C830E94D1147C816B813A
:1010B0005A81498180912705811155C0212FC60190
:1010C0000E94730481E0809346059FB7F894809155
:1010D00045058260809345059FBF0E94D114809191
:1010E0002705811140C0809128058111F6CF80919C
:1010F00046058130A9F4EE2051F08CE0EBE2F5E0FA
:10110000A7E3B5E001900D928A95E1F70CC09FB777
:10111000F894809147058061809347059FBF03C085
:1011200081E080934305109246050E94D11480917E
:101130002705811118C00E944E190E9415250E9492
:10114000BC296BE275E0C6010E94CA360F900F9071
:101150000F900F90DF91CF911F910F91EF90DF9043
:10116000CF900C94E2310F900F900F900F90DF9181
:10117000CF911F910F91EF90DF90CF9008958091C4
:10118000450584FD26C09FB7F89480914505806190
:10119000809345059FBF0E946D130E94D4138091D8
:1011A0002805982F9C7021F490912905913089F49D
:1011B0009FB7843029F4F89480914705806204C079
:1011C000F894809147058860809347059FBF0C94F1
:1011D000B51608958FE3E8E4F5E0DF011D928A95E6
:1011E000E9F76BE675E080E00E946822811103C098
:1011F00087E00C94153008956BE275E08FE595E07B
:101200000C94CA362F923F924F925F926F927F92C8
:101210008F929F92AF92BF92CF92DF92EF92FF9206
:101220000F931F93CF93DF93CDB7DEB7AA970FB677
:10123000F894DEBF0FBECDBF6C0189E3E7E8F5E0AF
:10124000DF011D928A95E9F78AE0E8E4F5E0A8E875
:10125000B5E001900D928A95E1F71D8E212C312C7D
:10126000812C912C18A2F12C1E8EAA24A394B12CAF
:10127000EE24E3948D8DF601E80FF11D008100232B
:1012800009F469C29FEB900F9A3110F00C94DD12B3
:101290008F5F8D8FAE01475E5F4FBE01635E7F4FF4
:1012A000C6010E94022A882311F40C94DF12498C93
:1012B0005A8C6B8C7C8CC301B2010E945A3B0E94F9
:1012C0009838162F70E080E090E00E94C9389B01AA
:1012D000AC01C301B2010E941F3720E030E048ECAE
:1012E00052E40E94773A0E94E43A0E949838073408
:1012F00021F00D3409F42FC173C1183209F400C173
:10130000E8F4143160F4113108F0A5C0143009F488
:101310004AC008F45AC01A30D1F10C94EB121C31B7
:10132000B1F128F4163108F4C5C00C94EB121E314B
:1013300071F1163209F449C00C94EB121D3309F413
:10134000D9C0A0F41533E1F140F41B3209F4BBC05D
:10135000113309F4B8C00C94EB121C3310F00C9448
:10136000EB12165310938E0589E0CDC01C3540F466
:101370001A3508F07FC0103509F469C00C94EB12DF
:101380001C3529F01F3508F48CC00C94EB12611544
:10139000710511F00C94FB12BE8DBB2311F40C945B
:1013A00008130C94E112E09287050DC01F3110F470
:1013B0000C941E13153311F00C942B13B1E0BE8F57
:1013C000E7E0E093870580E09EC08E8D81110C944C
:1013D000E11292E09E8F123089F028F4112359F027
:1013E000113081F08FC0163281F0103581F1133049
:1013F00009F088C007C01092880584C0AE8DA09304
:10140000880580C0109388057DC06E317105B1F0EC
:1014100048F46431710511F00C94EB12B4E0B09310
:10142000880513C06832710569F06233710511F0E7
:101430000C94EB1227E02093880507C0E5E0E093C9
:10144000880503C0F6E0F093880581E074C038E0B9
:101450003093880557C0123129F0133139F01092BA
:101460008C0502C0E0928C0582E04DC082E0809342
:101470008C0549C06115710549F41A3519F41092AB
:101480008B0502C0E0928B0583E055C06A30710580
:1014900011F00C94EB121A3511F40C94EB1284E059
:1014A0004AC01D3519F4E092890502C010928905E1
:1014B00085E029C0143119F4E0928A0502C0109227
:1014C0008A0586E020C08E8D81110C94E1121133C3
:1014D00031F410928D0588E093E09E8F2CC06A3025
:1014E000710511F00C94EB12E0928D0588E0A3E0F9
:1014F000AE8F21C0672B11F00C94EB128AE01BC059
:1015000087E001C081E0672BB1F00C9404131C311B
:1015100011F00C944513F1E0FE8F6115710511F483
:101520000C9429136A30710511F00C94EB1234E01D
:101530003093870580E0F50102C0EE0FFF1F8A950A
:10154000E2F7CF019F0128213921232B09F445C05F
:1015500085E10C944E13672B11F00C940413163094
:1015600018F4133058F017C0183010F40C94EB1224
:101570001A3000F11E3159F00C94EB12123039F090
:101580001E3129F0111120C0E0928F051DC082E0AC
:1015900080938F0519C0143029F0153039F0E0928E
:1015A000910506C082E08093910502C010929105DA
:1015B0008CE00BC0193021F082E08093900502C0CE
:1015C000109290058DE001C08BE0950102C0220FC2
:1015D000331F8A95E2F7C901B6CF882A992A4ACEE5
:1015E000802F000F990BAA0BBB0BFC01E654F109ED
:1015F000E531F10508F0EFC7EC5CFF4F0C94CD3BF3
:1016000040929205509293056092940570929505D0
:1016100080E07FC0409296055092970560929805B1
:101620007092990538A1316038A381E072C0409270
:101630009A0550929B0560929C0570929D0588A129
:10164000826088A382E065C040929E0550929F050B
:101650006092A0057092A10598A1946098A383E080
:1016600058C01093A20584E054C0C301B2010E9487
:1016700091386093A3057093A4058093A50590937A
:10168000A60585E046C04092A7055092A805609245
:10169000A9057092AA0586E03CC04092AB05509225
:1016A000AC056092AD057092AE0587E032C0409205
:1016B000AF055092B0056092B1057092B20588E016
:1016C00028C04092B4055092B5056092B60570925C
:1016D000B705AF2DA160FA2E8AE01BC04092B80575
:1016E0005092B9056092BA057092BB05BF2DB260E9
:1016F000FB2E8BE00EC04092BC055092BD0560925F
:10170000BE057092BF05EF2DE460FE2E8CE001C097
:1017100089E08501082E02C0000F111F0A94E2F72C
:10172000980122213321232B09F04DC721E633E014
:1017300002C0359527958A95E2F720FF09C020E081
:1017400030E0A901C301B2010E94153887FD3DC7F1
:10175000202A312A8FCDFF2029F03E8D311102C081
:1017600082E08E8F25FE0EC08091A3059091A40586
:10177000A091A505B091A60580389649A849B10564
:101780000CF025C780918905813031F4FE8DF2304F
:10179000A1F520FE26C731C08091490581112DC0D9
:1017A00020FE1BC080918A05813039F523E333E3A5
:1017B0004BEC51E4609192057091930580919405F2
:1017C000909195050E94773A6093920570939305E6
:1017D000809394059093950510C080915605909143
:1017E0005705A0915805B0915905809392059093A3
:1017F0009305A0939405B093950530FC10C080919B
:10180000520590915305A0915405B09155058093D0
:10181000AF059093B005A093B105B093B205809148
:101820008705813031F426FC02C08CE137C7E8948B
:1018300026F880918C05882371F0813031F421E005
:1018400028A71FA232E03EA30BC018A682E08FA3F8
:1018500091E09EA305C0A2E0A8A7B1E0BFA31EA28D
:1018600080918A05813021F0EE8DE33091F52AC018
:10187000E4EBCE2EE5E0DE2E00E010E0AF2CB12C44
:10188000C501002E02C0959587950A94E2F780FF66
:1018900010C023E333E34BEC51E4D6016D917D910D
:1018A0008D919C910E94773AF601608371838283C7
:1018B00093830F5F1F4FF4E0CF0ED11C033011054F
:1018C000F9F6D2CF80918D05813019F424E0F2121F
:1018D00080C68CE0EBE6F5E0DE011D9601900D92EE
:1018E0008A95E1F791FC09C0309187053F8F32302E
:1018F000B9F0383009F4AEC00EC180918E05873042
:1019000010F08DE1CBC690914E05981769F3BE019A
:10191000635F7F4F0E946822882309F46AC6E4CF80
:10192000F11002C08AE1BAC6C10180759927892BDE
:1019300009F47BCF6091A7057091A8058091A90556
:101940009091AA050E945A3B0E9498386730C8F6C9
:101950008091A205843129F0823009F03CC627FC31
:101960003AC68FEA2822662319F061506F8F03C0B0
:1019700090918E059F8FBE016F5F7F4F8F8D0E946C
:101980006822882309F435C6E090A20540908305BB
:101990005090840560908505709086058E010F5FDC
:1019A0001F4FA12CB12CC12CD12C8F2C912CC401F8
:1019B0000C2C02C0959587950A94E2F780FF3CC0F5
:1019C000D501A957BA4FBDA3ACA3B4E1EB1229C00E
:1019D000F501E85BFA4F27A530A941A952A967890B
:1019E000708D818D928D0E941F37ECA1FDA125A5E0
:1019F00036A547A550A90E941F37D8016D937D9346
:101A00008D939C931397B2E0CB16D104A9F4A30154
:101A100092010E941F37F801608371838283938350
:101A20000BC0ECA1FDA185A596A5A7A5B0A9F801BD
:101A300080839183A283B383FFEFCF1ADF0A0C5F09
:101A40001F4F24E0A20EB11C33E0C316D10409F0ED
:101A5000AECF12C1FF2009F465CF409083055090AE
:101A60008405609085057090860504EB15E0A12C37
:101A7000B12CC12CD12C8F2C912CF501E85BFA4FA5
:101A8000C4010C2C02C0959587950A94E2F780FF5B
:101A90002BC0ADE0B0E0AC0FBD1FAA0DBB1D2D915A
:101AA0003D914D915C916789708D818D928D0E94E1
:101AB0001F37D8012D913D914D915C910E941F37A8
:101AC000F8016083718382839383F2E0CF16D1049F
:101AD000A1F4A30192010E941F37D8016D937D9359
:101AE0008D939C93139709C087A590A9A1A9B2A92A
:101AF000F80180839183A283B383FFEFCF1ADF0ABB
:101B00000C5F1F4F24E0A20EB11C33E0C316D104BA
:101B100009F0B3CFB0C08E8D833059F49F8D9530CE
:101B200009F491C0973009F4A1C0933009F0A3C023
:101B300082C0FF2009F494C0E0908B05409083059B
:101B40005090840560908505709086057FE5A72EEE
:101B500075E0B72E04EB15E04E01ADE08A0E911C46
:101B6000C12CD12CEF2DF0E0FDA3ECA38CA19DA105
:101B70000C2C02C0959587950A94E2F780FD0BC066
:101B8000F50180819181A281B381F80180839183E5
:101B9000A283B3833FC0FF8DF730E1F1E11029C08C
:101BA000D50158962D913D914D915C915B97F40133
:101BB00060817181828193810E942037D8012D91AB
:101BC0003D914D915C910E942037F80160837183B3
:101BD00082839383F2E0CF16D104E1F4A301920152
:101BE0000E942037D8016D937D938D939C9313971A
:101BF00011C0F5012081318142815381D8016D915D
:101C00007D918D919C910E942037F80160837183B2
:101C100082839383FFEFCF1ADF0A24E0A20EB11C68
:101C20000C5F1F4F34E0830E911C83E0C816D10473
:101C300009F09CCF73CFF11001C01E8EBE016F5F03
:101C40007F4F86E007C0F11001C01E8EBE016F5F9E
:101C50007F4F87E00E946822882309F4CAC40BC022
:101C6000AF8DA53091F3A73009F014C58091880598
:101C7000823008F0B2C41F8E10918805183041F4EC
:101C8000FF2009F4B5C19E8D913009F0A8C48EC221
:101C9000AE8DA23009F0ACC11123D9F020E030E0C4
:101CA000A90160919205709193058091940590919E
:101CB00095050E941538882309F493C4143028F43C
:101CC000123058F4113029F071C2183008F44FC1A5
:101CD0006DC2FF2009F48FC169C2FF2009F422CE32
:101CE000FEA1EF2FF0E0FDA3ECA33FA1232F30E0F6
:101CF0003AA729A781E090E08C010FA002C0000F55
:101D0000111F0A94E2F70EA002C0880F991F0A94CF
:101D1000E2F7082B192B8F2D90E080239123892B3C
:101D200009F461C4CF01880F991F880F991FFC0126
:101D3000E957FA4FDC01A85BBA4F57962D913D91B8
:101D40004D915C915A9765A576A587A590A90E94AB
:101D50001F376B017C0189A59AA5880F991F880FF1
:101D6000991FFC01E957FA4FDC01A85BBA4F57965F
:101D70002D913D914D915C915A9765A576A587A5CA
:101D800090A90E941F374B015C0127FE40C0E894D8
:101D900027F82091B4053091B5054091B6055091D2
:101DA000B70560915F057091600580916105909124
:101DB00062050E941538811123C12091B805309128
:101DC000B9054091BA055091BB05609163057091CA
:101DD000640580916505909166050E941538811112
:101DE0000FC12091BC053091BD054091BE055091B9
:101DF000BF056091670570916805809169059091B4
:101E00006A050E9415388111FBC081E247C4F8A120
:101E10004F2E512C04211521012B09F4E6C321EF8B
:101E2000222280918A05813009F45AC009A51AA599
:101E3000000F111F000F111F05571A4FD8011B96D5
:101E40002D913D914D915C911E97C501B4010E9469
:101E50001F372B013C018CA19DA1880F991F880F72
:101E6000991FFC01E557FA4F5F01238534854585AD
:101E70005685C701B6010E941F37A30192010E9437
:101E8000CD2A6B017C01D8011B962D913D914D917E
:101E90005C911E97F50163857485858596850E9402
:101EA000CD2A4B015C016093AB057093AC05809328
:101EB000AD059093AE059B01AC01C701B6010E9430
:101EC0001F376B017C01E894F7F82AE037ED43EA0D
:101ED0005BE3C701B6010E94373A18165CF166C190
:101EE00087E8682E85E0782E00E010E0C201002E21
:101EF00002C0959587950A94E2F780FF12C023E30C
:101F000033E34BEC51E4D3011F966D917D918D919C
:101F10009C9152970E94773AF3016787708B818B6F
:101F2000928B0F5F1F4FF4E06F0E711C0330110591
:101F3000E9F67CCF20E030E040E05FE3C701B60186
:101F40000E94373A18160CF460CF2FE632E143E8CE
:101F50005AE3C501B4010E94773A9B01AC01C70165
:101F6000B6010E94373A18160CF44FCF1FC1FF205C
:101F700009F4D8CC2091B4053091B5054091B6054F
:101F80005091B70560915F05709160058091610582
:101F9000909162050E941538811108C12091B80501
:101FA0003091B9054091BA055091BB056091630528
:101FB0007091640580916505909166050E941538C1
:101FC0008111F4C02091BC053091BD054091BE0542
:101FD0005091BF0560916705709168058091690512
:101FE00090916A050E941538882309F40ECFDEC04F
:101FF0002E8D2111DBC0C1018E7D9C7F1E8ED9C02C
:1020000080918A058130B1F423E333E34BEC51E452
:102010006091AB057091AC058091AD059091AE05D6
:102020000E94773A6093AB057093AC058093AD0541
:102030009093AE054090AB055090AC056090AD0517
:102040007090AE0520E030E040E850E4C301B201FA
:102050000E94773AA30192010E94773A2B013C013A
:10206000A7019601C701B6010E94773A9B01AC0116
:10207000C301B2010E941F372B013C01A50194014D
:10208000C501B4010E94773A9B01AC01C301B201C2
:102090000E941F372B013C0120E030E0A9010E9483
:1020A000153887FDB3C2C301B2010E94163B2B0154
:1020B0003C01A5019401C701B6010E94CD2A9B01F4
:1020C000AC01C301B20190580E941F382B013C01A2
:1020D00080918805833021F477FA709477F87094B2
:1020E0008091AB059091AC05A091AD05B091AE0586
:1020F00088A399A3AAA3BBA320E030E0A901BC0157
:10210000CD010E94153887FF11C077FA709477F8D7
:10211000709488A199A1AAA1BBA1B0588093AB05E6
:102120009093AC05A093AD05B093AE050CA11DA195
:10213000000F111F000F111F05571A4FA301920125
:10214000C501B4010E94773A9B01AC01C701B601F9
:102150000E941F3720E030E040E05FE30E94773AC2
:10216000D8011B966D937D938D939C931E9709A523
:102170001AA5000F111F000F111F05571A4FA301B9
:102180009201C701B6010E94773A9B01AC01C501DB
:10219000B4010E94203720E030E040E05FE30E947D
:1021A000773AF8016387748785879687C1018E7DAA
:1021B000907E892B09F01BC28091A3059091A40504
:1021C000A091A505B091A60580935B0590935C0551
:1021D000A0935D05B0935E058091890580934905C4
:1021E0008091920590919305A0919405B0919505E9
:1021F0008093560590935705A0935805B0935905C1
:10220000C090AF05D090B005E090B105F090B20558
:10221000A701960160915205709153058091540574
:10222000909155050E9415388823C1F08091510581
:10223000882321F0B701A6010E9471138091AF0598
:102240009091B005A091B105B091B205809352056F
:1022500090935305A0935405B09355058091B30511
:1022600080935A058091910590915105981771F0CE
:102270004091520550915305609154057091550558
:102280000E94711380919105809351058091900572
:1022900090915005981731F00E94DF1380919005BE
:1022A0008093500580918705813051F46091A70596
:1022B0007091A8058091A9059091AA050E94B10787
:1022C00080918C0580934C0580918A0580934A0506
:1022D0003E8D3330F9F480918D0580934D0581302A
:1022E00089F48091BC059091BD05A091BE05B09187
:1022F000BF058093830590938405A0938505B093D3
:10230000860508C0109283051092840510928505F9
:102310001092860580918E0590914E05981759F080
:1023200080934E058CE0FE013D96ABE6B5E0019052
:102330000D928A95E1F780918B0580934B05E09192
:1023400087058E2F90E0FC013297E830F10508F008
:102350004BC0E75BFF4F0C94CD3BBE016F5F7F4FDF
:102360008F8D0E941C2180914E059F8D89133CC04A
:102370008CE0FE013196ABE6B5E01AC0AE8DAA2323
:1023800049F020E040E050E060E87FEB84EB95E02E
:102390000E94730420E040E050E060E87FEBCE0153
:1023A00001960E9473048CE0FE013196AFE5B5E022
:1023B00001900D928A95E1F717C06FE575E086E010
:1023C00003C06FE575E087E00E941C210DC08CE022
:1023D000E4EBF5E0A7E7B5E0EBCF8CE0E7E7F5E06D
:1023E000DF011D928A95E9F7E0918805E0934805A1
:1023F000E83009F499C0BE8DB23009F095C08E2F37
:1024000090E08830910508F086C0FC01EF5AFF4F3C
:102410000C94CD3B20E040E050E060E87FEB0AC048
:102420004091560550915705609158057091590596
:102430002091490584EB95E00E9473046CC0C09024
:102440005605D0905705E0905805F0905905009139
:10245000AB051091AC052091AD053091AE0581E042
:102460008F93E8A5EF93FFA1FF9315C0C090560589
:10247000D0905705E0905805F09059050091AB05B4
:102480001091AC052091AD053091AE051F9288A545
:102490008F939FA19F938EA0A090490546E955E098
:1024A00064EB75E08FE595E00E94C1040F900F90FA
:1024B0000F9031C0409156055091570560915805D5
:1024C00070915905E12C0AC040915605509157056D
:1024D0006091580570915905EE24E39400E015C011
:1024E00040915605509157056091580570915905D6
:1024F000E12C0AC04091560550915705609158054E
:1025000070915905EE24E39401E02091490584EB94
:1025100095E00E9422088CE0E4EBF5E0AFE5B5E041
:1025200001900D928A95E1F780918F0580934F0578
:10253000882309F4B3C00E94841690914F058091BE
:102540002805913069F48230A1F19FB7F894809109
:1025500045058860809345059FBF0E94D11429C01E
:1025600091E09093480510924C0510924B05109203
:10257000490510924E051092510510925005823077
:10258000A9F0BE01635F7F4F80E00E94682288232C
:1025900081F18CE0FE013D96ABE6B5E001900D9235
:1025A0008A95E1F70E946D130E94D41387E00E9480
:1025B000473010924F0580E071C081E06FC082E02B
:1025C0006DC088E16BC089E169C084E067C08BE1C0
:1025D00065C085E263C084E161C08EE15FC08FE1C8
:1025E0005DC086E15BC080E259C083E257C084E2EF
:1025F00055C087E053C01E3189F0C8F51A3021F16B
:102600001C3111F40C948D0A87E148C082E246C067
:102610001E3111F00C94D60981E08E8F6115710581
:1026200041F06A307105B9F6A6E0A09387050C94D5
:102630009A0A95E0909387050C949A0A1A3011F043
:102640000C94870AE1E0EE8F82E0809387050C947A
:10265000E30923E008C01C35C1F4F1E0FE8F6115E9
:10266000710561F428E0209387050C949A0A1533CC
:1026700011F40C94E0091C3591F3C6CF6A30710552
:1026800009F0A9CF39E00C94980A80E0B1E0BE8F40
:102690000C949B0AA33009F0EECACFCAAA960FB6D3
:1026A000F894DEBF0FBECDBFDF91CF911F910F9188
:1026B000FF90EF90DF90CF90BF90AF909F908F9062
:1026C0007F906F905F904F903F902F900895239A46
:1026D000259A8FE08093B30008958FE08093B30034
:1026E0000895CF92DF92EF92FF92CF93DF931F92E4
:1026F000CDB7DEB76A017B0190912805923009F4CD
:102700004AC089830E94F7150E948416898181112D
:1027100004C08FE08093B3003EC0813011F42D9847
:1027200001C02D9A83E88093B0008091B10087604A
:102730008093B10020E030E0A901C701B6010E94FA
:10274000153887FD11C020E030E04AE754E4C701A6
:10275000B6010E94373A181654F4C12CD12C8AE7DE
:10276000E82E84E4F82E03C0C12CD12C760126E992
:1027700033E44BE85CE3C701B6010E94773A20E0FE
:1027800030E040E751E40E9420370E9404390E9463
:1027900098386093B3000F90DF91CF91FF90EF9046
:1027A000DF90CF9008950895439808953B9A0C9434
:1027B000D413823011F4439A08950C94D413CF9318
:1027C000DF931F92CDB7DEB790912805923049F084
:1027D00089830E94841689810F90DF91CF910C9498
:1027E000D9130F90DF91CF910895909102018091BC
:1027F0000301891708F48058891B0895E0ECF0E084
:102800008081826080831092C50080E18093C40043
:10281000E1ECF0E08081806180838081886080834A
:102820008081806880830895E091010191E09E0F8E
:10283000903431F490E004C02091450524FD0FC090
:10284000209100019217C1F3F0E0E054FA4F808329
:10285000909301018091C10080628093C10008952E
:102860001F920F920FB60F9211248F939F93EF93A5
:10287000FF9380910001E82FF0E0E054FA4F90813F
:102880009093C6008F5F803409F480E0809300014C
:1028900090910101891305C08091C1008F7D8093C3
:1028A000C100FF91EF919F918F910F900FBE0F90FC
:1028B0001F9018959091020180910301891761F092
:1028C000E92FF0E0E050FA4F80819F5F903809F4E3
:1028D00090E09093020108958FEF08951F920F9258
:1028E0000FB60F9211242F933F934F935F936F93E3
:1028F0007F938F939F93AF93BF93EF93FF938091B9
:10290000C6008F33A9F050F4883109F1813211F5F6
:102910009FB7F89480914505886015C0803471F0A8
:102920008E37C1F49FB7F8948091450582600BC043
:102930009FB7F89480914505816005C09FB7F894D2
:10294000809145058062809345059FBF14C00E9419
:10295000BF0811C0E091030191E09E0F903809F487
:1029600090E020910201921731F0F0E0E050FA4F30
:10297000808390930301FF91EF91BF91AF919F915D
:102980008F917F916F915F914F913F912F910F9018
:102990000FBE0F901F901895809103018093020144
:1029A0000895EF92FF920F931F93CF93DF93D1E09F
:1029B00008E080E2F82E10E190E4E92EC09147058E
:1029C000CC2389F1D0932805C1FF02C081E00FC05C
:1029D000C2FF02C082E00BC0C3FF02C083E007C099
:1029E000C4FF02C084E003C0C5FF03C085E00E94AD
:1029F0001D30C0FD08C08FB7F89490914705109224
:102A000047058FBF10C081E00E9447309FB7F89400
:102A1000809145058F7E809345059FBF8091450538
:102A200084FFFCCFE8CFC0914505CC2309F4C0C09A
:102A3000C4FF04C081E080932705D2C0C0FF0AC054
:102A40000E9478339FB7F894809145058E7F8093DC
:102A500045059FBF8C2F887609F43CC080912805DE
:102A6000882349F0982F9C7769F1883021F40E94DF
:102A70009C19D093290580912805811103C092E00B
:102A800090932905C6FF09C0883011F4E09228050B
:102A900080912905886080932905C3FF05C0809136
:102AA000280585FF10932805C5FF0CC086E00E940D
:102AB00047308091290581FDC46084608093290599
:102AC000F09228059FB7F894809145058779809307
:102AD00045059FBFC1FF48C08C2F8876E9F58091DE
:102AE0002805882331F08075B9F18091290581FF8F
:102AF00033C08091290582FF1CC080915105882335
:102B000071F04091520550915305609154057091B8
:102B100055050E94D31380EA9FE00E94C22A80914B
:102B20005005882331F00E94D91388EE93E00E946B
:102B3000C22A0E943A25892B59F08091290583FDEC
:102B400007C0009328050E94BE190E94951602C076
:102B500010922805109229059FB7F8948091450599
:102B60008D7F809345059FBFC2FF22C080912805BD
:102B7000807391F080912A0581110EC08091290502
:102B800082FF04C00E946D130E94D4138091290516
:102B900082608093290504C01092290510922805AF
:102BA0009FB7F894809145058B7F809345059FBF23
:102BB000809128058C7711F00E94BE19809128051C
:102BC000803251F48091290581FF06C00E94C134F2
:102BD000811102C010932805809129058111EECE44
:102BE000DF91CF911F910F91FF90EF9008959FB7C4
:102BF000F894809145058260809345059FBF0895B4
:102C0000CF93DF930E94763080912805813021F4A4
:102C100082E00E9447302FC00E94C134882341F0D7
:102C2000809145058062809345050E94D11402C0C1
:102C30001092280584E091E00E94C3341CC08D30BE
:102C400079F0DD2399F1893221F4D13009F04EC0B9
:102C5000D0E00E945A148F3F09F44AC08A3079F7B5
:102C6000EC2FF0E0EC5FFE4F10820E94D1148091B7
:102C70002705882311F0C0E0EBCF8091040181117A
:102C800003C00E941530F7CF843229F484E091E02C
:102C90000E94E334F6CF80912805813011F489E059
:102CA000F0CF84E091E00E940209EBCF813288F2FC
:102CB0008F3279F28832C1F08B33C1F0CF3428F0F3
:102CC0008BE00E941530C0E0C4CF2C2F30E0E1E053
:102CD000EC0F9FE9980FD901AC5FBE4F9A3108F411
:102CE00080528C93CE2FB5CFD1E0B3CFD2E0B1CF0D
:102CF0000E94F7150E94D11480912705882309F4BA
:102D0000A8CFDF91CF9108950E94F7150E94D114AA
:102D100080912705811108C00E943A25892BB1F7BF
:102D200080912805883091F308958091BD0682FF37
:102D300002C0289A01C02898809128058C70A1F0C3
:102D400080918401809398018091850180939701FF
:102D50008091B006880F8450819580939601809170
:102D60006F00826080936F00089580916F008D7F67
:102D700080936F0080918100887F816080938100C3
:102D8000109283018091B3068F3F21F49091470503
:102D9000992349F090912805943029F090E00E9401
:102DA000C22A81E001C080E09091BD0692FF02C07E
:102DB00091E08927882311F0289A0895289808958A
:102DC0001F920F920FB60F9211242F933F934F93A0
:102DD0005F936F937F938F939F93AF93BF93EF9383
:102DE000FF93809183018111F8C18BB1909198017B
:102DF000907E8F71892B8BB98BB1837E90919701D7
:102E0000892B8BB98091960186BD82E085BD81E0DA
:102E10008093830178948091AA019091AB01892BD2
:102E200009F0ADC08091880190918701981709F44D
:102E30009BC0E09188012E2F30E086E0E89FF001F2
:102E40001124E455FE4FF093AB01E093AA01838176
:102E500094819093890080938800808191819093E0
:102E6000A6018093A501E2818091A7018E1761F1EF
:102E7000E093A70181E1E89FF0011124E053FE4FA8
:102E8000F093A901E093A80185859685A785B0896F
:102E9000B695A79597958795809391019093920108
:102EA000A0939301B093940180938D0190938E0130
:102EB000A0938F01B09390018093890190938A0130
:102EC000A0938B01B0938C01E091A801F091A9012E
:102ED00090918401808189278093980186E0829F68
:102EE000D001839FB00D1124A455BE4F15962C918F
:102EF00081819281A381B481022E04C0B695A795E9
:102F0000979587950A94D2F78093990190939A01A7
:102F1000A0939B01B0939C0185819681A781B08588
:102F2000022E04C0B695A795979587950A94D2F777
:102F300080939D0190939E01A0939F01B093A00167
:102F400081859285A385B48504C0B695A79597958C
:102F500087952A95D2F78093A1019093A201A0931F
:102F6000A301B093A4010BC00E94B5169FB7F894BB
:102F7000809145058460809345059FBF2EC10E94C6
:102F8000B32F109297014091990150919A0160914D
:102F90009B0170919C018091890190918A01A0917F
:102FA0008B01B0918C01840F951FA61FB71F8093D2
:102FB000890190938A01A0938B01B0938C01E091D9
:102FC000A801F091A9014585568567857089481744
:102FD00059076A077B0768F524E020939701458528
:102FE000568567857089841B950BA60BB70B80935C
:102FF000890190938A01A0938B01B0938C01208169
:1030000080912B0590912C05A0912D05B0912E0556
:1030100025FF04C00197A109B10903C00196A11DB4
:10302000B11D80932B0590932C05A0932D05B09393
:103030002E0540919D0150919E0160919F017091DC
:10304000A00180918D0190918E01A0918F01B0918E
:103050009001840F951FA61FB71F80938D01909339
:103060008E01A0938F01B0939001458556856785A9
:103070007089481759076A077B0778F520919701EF
:103080002860209397014585568567857089841B44
:10309000950BA60BB70B80938D0190938E01A09397
:1030A0008F01B0939001208180912F059091300580
:1030B000A0913105B091320526FF04C00197A10906
:1030C000B10903C00196A11DB11D80932F059093F6
:1030D0003005A0933105B09332054091A101509184
:1030E000A2016091A3017091A4018091910190913E
:1030F0009201A0919301B0919401840F951FA61F96
:10310000B71F8093910190939201A0939301B09384
:1031100094014585568567857089481759076A0760
:103120007B0778F5209197012061209397014585D1
:10313000568567857089841B950BA60BB70B80930A
:10314000910190939201A0939301B09394012081F7
:103150008091330590913405A0913505B0913605E5
:1031600027FF04C00197A109B10903C00196A11D61
:10317000B11D8093330590933405A0933505B0932A
:10318000360580912805843039F49091440580916A
:1031900097018923809397018091A5019091A601C1
:1031A00001979093A6018093A501892B69F4109251
:1031B000AB011092AA01809188018F5F80938801F2
:1031C000863011F4109288019091850180919701C9
:1031D00089278093970110928301FF91EF91BF910E
:1031E000AF919F918F917F916F915F914F913F919F
:1031F0002F910F900FBE0F901F9018951F920F9256
:103200000FB60F9211248F939F938BB190918501EC
:103210009C71837E892B8BB915BC9F918F910F90E8
:103220000FBE0F901F9018950F931F93CF93DF93AE
:103230001092850110928401C0E0D0E01C2F0C2F69
:103240002091B10630E08C2F0C2E02C035952795C9
:103250000A94E2F720FF07C00E94AC2390918501F9
:10326000892B809385012091B20630E002C035950C
:1032700027950A95E2F720FF08C0812F0E94B62308
:1032800090918401892B809384012196C330D105CC
:10329000A9F6DF91CF911F910F9108950E94B51665
:1032A0008BE2E4E5F1E0DF011D928A95E9F783E224
:1032B000E9E8F1E0DF011D928A95E9F710928201B9
:1032C00010928101109288011092870181E0809311
:1032D0008601109283010E9414198BB1837E909114
:1032E0008501892B8BB98BB18F7190918401892BCA
:1032F0008BB908958AB18C618AB9209A8AB1806E9F
:103300008AB9E1E8F0E080818F7E808380818860E7
:103310008083E0E8F0E080818C7F808380818F7003
:103320008083EEE6F0E08081887F808314BC15BC4A
:103330008081816080830895CF93DF93C091810164
:10334000D09182012097B9F081E08093550160917E
:103350006B0170916C0180916D0190916E019B01E8
:10336000AC010E94773A698B7A8B8B8B9C8B109285
:10337000820110928101DF91CF9108952F923F92A7
:103380004F925F926F927F928F929F92AF92BF9275
:10339000CF92DF92EF92FF920F931F93CF93DF9321
:1033A000CDB7DEB7E8970FB6F894DEBF0FBECDBF3E
:1033B00080912805807709F4FBC020E030E0A90166
:1033C00060916B0170916C0180916D0190916E0123
:1033D0000E9415388111ECC057C62FA138A549A508
:1033E0005AA5B80188AD9FA90E94373A18160CF467
:1033F00048C53D8530936601832D922DA981BD81FD
:1034000080936B0190936C01A0936D01B0936E015A
:1034100080915A0190915B01A0915C01B0915D0196
:103420008D879E87AF87B88B980148AD5FA9BC0197
:10343000CD010E94773A69837A838B839C830E94B3
:10344000FE376B017C0160915601709157018091AC
:103450005801909159010E94FE374B015C01A70170
:1034600096010E941F370E9498386D837E838F8358
:10347000988726E0A985BA852A9FF0012B9FF00D39
:103480001124E455FE4F4D815E8151834083CA0172
:10349000892B09F41AC52091620130916301409192
:1034A000640150916501C301B2010E9420372B01D4
:1034B0003C0129813A814B815C81C501B4010E94A4
:1034C0001F379B01AC01C301B2010E941F384B01A1
:1034D0005C0129813A814B815C81C701B6010E9460
:1034E0001F37A50194010E94773A6093620170939F
:1034F0006301809364019093650120EC31EE44E612
:103500005EE4C501B4010E94773A0E94FE370E9432
:103510009838603DB7E07B078105910508F0FDC450
:1035200046E029853A85429FF001439FF00D112422
:10353000E455FE4F158246E029853A85429FF00109
:10354000439FF00D1124E455FE4F748363838091F3
:103550008601809387018F5F863009F437C5809399
:103560008601209167013091680140916901509175
:103570006A01B80188AD9FA90E94373A18160CF06D
:1035800028C5E0918101F0918201C801A8ADBFA9D1
:1035900085A396A3A7A3B0A729813A814B815C811B
:1035A000209356013093570140935801509359018D
:1035B0009091880180918601981709F465C58091E2
:1035C000810190918201892B09F069C20E943A25FC
:1035D0001C019093820180938101892B09F454C5C9
:1035E0008091550110912805882319F010925501FA
:1035F000CEC0809154018F5F853019F080935401C3
:1036000002C010925401E091540121E12E9FF0017B
:103610001124E053FE4FF0938001E0937F01D1012C
:103620008C91808311964D915D916D917C91149751
:10363000DB01CA0123E0880F991FAA1FBB1F2A952F
:10364000D1F781839283A383B483D10115964D91E1
:103650005D916D917C911897DB01CA0133E0880F71
:10366000991FAA1FBB1F3A95D1F785839683A7831D
:10367000B087D10119964D915D916D917C911C9708
:10368000DB01CA0143E0880F991FAA1FBB1F4A959F
:10369000D1F781879287A387B487D1011D964D9179
:1036A0005D916D917C915097DB01CA0153E0880FC9
:1036B000991FAA1FBB1F5A95D1F785879687A787A1
:1036C000B08BF10165857685878590890E94C73822
:1036D000609356017093570180935801909359015C
:1036E000D10195962D913D914D915C9198970E94B5
:1036F0001F389B01AC0160935A0170935B0180936A
:103700005C0190935D0160E070E080EA9FE30E94BD
:103710001F3860935E0170935F0180936001909306
:103720006101109262011092630110926401109283
:103730006501812F8077D1F06091730170917401E0
:10374000809175019091760160936B0170936C018B
:1037500080936D0190936E019B01AC010E94773ABA
:10376000F101618B728B838B948B11C0D1015196C7
:103770006D917D918D919C9154970E94163B609321
:103780006B0170936C0180936D0190936E011092A8
:103790006701109268011092690110926A01F101AB
:1037A00081A092A0A3A0B4A0A501940160E070E064
:1037B00080E09FE30E941F382B013C011077D1016C
:1037C0009596CD90DD90ED90FC909897112309F49B
:1037D0004DC0B2E0B0936601D10151962D913D915B
:1037E0004D915C91549729833A834B835C830E946B
:1037F000773A9B01AC01C701B6010E941F372B012C
:103800003C0120E030E0A9010E94153887FF1DC06F
:10381000A5019401C501B4010E942037A7019601BA
:103820000E94773A9B01AC0169817A818B819C81EE
:103830000E941F370E94163B6093730170937401BE
:1038400080937501909376012AC14092670150924E
:1038500068016092690170926A011092730110927E
:103860007401109275011092760119C110926601CF
:10387000C0927701D0927801E0927901F0927A01BA
:103880000E944A254B015C0160937301709374019F
:1038900080937501909376019B01AC010E94773A69
:1038A0006D837E838F8398870091810110918201BF
:1038B000D80195962D913D914D915C9198972987CE
:1038C0003A874B875C8751962D913D914D915C9144
:1038D000549729833A834B835C839B01AC016981B4
:1038E0007A818B819C810E941F379B01AC01C301AF
:1038F000B2010E94773A9B01AC0169857A858B857C
:103900009C850E94203720E030E040E05FE30E9489
:10391000773A6B017C0120E030E0A9010E94373A40
:1039200018160CF0ACC029853A854B855C85C7011B
:10393000B6010E94153887FF8EC0F801858C968CE1
:10394000A78CB0A02D813E814F815885C501B4015F
:103950000E941F379B01AC01C301B2010E94773A5C
:1039600060937B0170937C0180937D0190937E0135
:10397000A70196010E94153887FF3DC0C501B4011B
:103980000E94163B60936F017093700180937101E8
:1039900090937201A501940169817A818B819C8148
:1039A0000E941538811104C0F1E0F093660177C0E0
:1039B00029813A814B815C81C501B4010E941F3786
:1039C0009B01AC01C301B2010E94773A9B01AC019B
:1039D00060917701709178018091790190917A01DD
:1039E0000E941F376093770170937801809379016B
:1039F00090937A0154C0C0927701D0927801E092FE
:103A00007901F0927A01C0927B01D0927C01E09220
:103A10007D01F0927E01D80191966D917D918D91FD
:103A20009C9194979B01AC010E942037A7019601BD
:103A30000E94773A2D813E814F8158850E94203720
:103A40000E94163B60936F01709370018093710127
:103A50009093720124C0B2E0B093660180916B0133
:103A600090916C01A0916D01B0916E0180936F01F6
:103A700090937001A0937101B093720110C01092E5
:103A80007701109278011092790110927A01809258
:103A90006F0190927001A0927101B09272018091B9
:103AA0008701E82FF0E0FA87E98746E09F01429F0F
:103AB000F001439FF00D1124E455FE4F8091540115
:103AC000828380918101909182019A8B898BDC01A4
:103AD0009596BC91BBA7FC01F6A1FCA7DC019796CB
:103AE000BC91BDA7FC01F0A5FEA720915E0130911D
:103AF0005F0140916001509161016BA57CA58B2F06
:103B00009F2F0E941F376FA378A789A79AA720E04D
:103B100030E0A9010E94153887FF04C01FA218A633
:103B200019A61AA6209166012D8730906B0120906E
:103B30006C0130916D01398340916E014D8350913C
:103B400077015F8B80917801888F90917901998FAF
:103B5000A0917A01AA8FB0916F01BB8FE0917001A3
:103B6000EC8FF0917101FD8F209172012E8F3091B9
:103B70007B013F8F40917C0148A350917D0159A367
:103B800080917E018AA3909167019BA3A091680117
:103B9000ACA3B0916901BDA3E0916A01EEA32091AD
:103BA00073013091740140917501509176012BABF6
:103BB0003CAB4DAB5EAB0BA51CA53DA538AF4EA5F0
:103BC0004FAB8EE3C82E83ECD82E8EE2E82E89E32D
:103BD000F82E412C512C3201CB8ADC8AED8AFE8AE8
:103BE0009D85992321F0913009F482C0B4C0A98940
:103BF000BA8991962D913D914D915C919497C70111
:103C0000B6010E94773A4B015C0120E030E040E0D1
:103C10005FE30E94773A9B01AC01632D722D89818D
:103C20009D810E9420379B01AC01C701B6010E9413
:103C3000773A9B01AC01B80188AD9FA90E941F375C
:103C40008B0188AF9FAB2F89388D498D5A8D0E948B
:103C5000153887FF40C02F89388D498D5A8D6BA547
:103C60007CA58DA59EA50E941F379B01AC010E94DB
:103C700020376B017C012B8D3C8D4D8D5E8D632D2E
:103C8000722D89819D810E9420379B01AC01C70163
:103C9000B6010E941F386B017C012F8D38A149A10C
:103CA0005AA16F89788D898D9A8D0E94153881115E
:103CB00003C0B2E0BD8702C0E1E0ED873B8C2C8CF5
:103CC000FD8DF9832E8D2D830F89188D398D38AF99
:103CD0004A8D4FABBFC0A5019401632D722D898120
:103CE0009D810E942037362E272E89839D83B2C066
:103CF000A70196016B8D7C8D8D8D9E8D0E94773AEC
:103D00009B01AC01B80188AD9FA90E941F374B01F0
:103D10005C012F8D38A149A15AA10E94153887FF57
:103D200096C02F8D38A149A15AA1B80188AD9FA98D
:103D30000E941F372B8D3C8D4D8D5E8D0E941F384C
:103D40006B017C010F8D18A159A158AF8AA18FABCF
:103D500092E09D877FC0A989BA8991962D913D9166
:103D60004D915C919497C701B6010E94773A4B013F
:103D70005C019B01AC01632D722D89819D810E94A4
:103D8000373A1816E4F520E030E040E05FE3C50183
:103D9000B4010E94773A9B01AC01632D722D898199
:103DA0009D810E941F379B01AC01C701B6010E9493
:103DB000773A9B01AC01B80188AD9FA90E941F37DB
:103DC0006FA778AB89AB9AAB2BA13CA14DA15EA1AB
:103DD0000E94373A18169CF4A5019401632D722DA8
:103DE00089819D810E941F37362E272E89839D83CE
:103DF0000FA518A9B9A9B8AFEAA9EFAB2BC02BA1A1
:103E00003CA14DA15EA1B80188AD9FA90E941F37BA
:103E10009B01AC010E9420376B017C012BA93CA9BE
:103E20004DA95EA9632D722D89819D810E94203745
:103E30009B01AC01C701B6010E941F386B017C01D8
:103E40000BA11CA1FDA1F8AF2EA12FAB03C08401D3
:103E5000A8AEBFAAA7019601C301B2010E942037F4
:103E60002B013C012B893C894D895E890E941538C4
:103E700087FFB3CAA30192016B897C898D899E89D2
:103E800010C02EE333EC4EE259E36B897C898D89B7
:103E90009E890E9420376B8B7C8B8D8B9E8BA30120
:103EA00092010E941F376B017C012BA13CA14DA107
:103EB0005EA1B80188AD9FA90E94373A18160CF48C
:103EC0008FCE9D859093660197CA80912805807753
:103ED00009F4E1CA10926B0110926C0110926D010D
:103EE00010926E01109262011092630110926401AF
:103EF00010926501C0925601D0925701E09258018C
:103F0000F09259012D853E854F855889C701B6012C
:103F10000E941F38A989BA8990C0603A5FE075078E
:103F20008105910560F426E0A985BA852A9FF001F4
:103F30002B9FF00D1124E455FE4F31E011C0603489
:103F40004FE174078105910568F426E0A985BA85DB
:103F50002A9FF0012B9FF00D1124E455FE4F32E013
:103F600035830CC0A6E049855A85A49FF001A59F22
:103F7000F00D1124E455FE4FB3E0B58346E02985EA
:103F80003A85429FF001439FF00D1124E455FE4F06
:103F90002581022E04C096958795779567950A949A
:103FA000D2F7AD81BE8102C0AA0FBB1F2A95E2F7EE
:103FB000B183A08361157105B1E08B07910508F409
:103FC000BACA8FEF9FEF94838383C1CA1092860190
:103FD000C8CA20E030E0A901B80188AD9FA90E94BD
:103FE000373A18160CF049C010926B0110926C0110
:103FF00010926D0110926E01109262011092630195
:104000001092640110926501C0925601D09257013E
:10401000E0925801F09259010091810110918201C2
:1040200020915A0130915B0140915C0150915D01FA
:10403000C701B6010E941F38D80195966D937D93F4
:104040008D939C939897E8960FB6F894DEBF0FBEB9
:10405000CDBFDF91CF911F910F91FF90EF90DF9037
:10406000CF90BF90AF909F908F907F906F905F9018
:104070004F903F902F900C94FA2910928201109249
:1040800081010E94262594CAE8960FB6F894DEBFF7
:104090000FBECDBFDF91CF911F910F91FF90EF9099
:1040A000DF90CF90BF90AF909F908F907F906F9058
:1040B0005F904F903F902F900895F999FECF92BD59
:1040C00081BD81E08FBB80B50895F894F999FECF4A
:1040D00092BD81BD81E08FBB80B58627482F082E19
:1040E000000C550B262F30E024233523232B39F0E9
:1040F0006F3F19F060BD84E006C084E104C08823EE
:1041000021F060BD84E28FBBF99A789408958F9274
:104110009F92AF92BF92CF92DF92EF92FF920F9356
:104120001F93CF937C014A016B01C40ED51E8B01F6
:10413000C0E05C01A61AB70AC8018A0D9B1D0C15C8
:104140001D0599F0C11108C02C2FCC0F330B232F64
:10415000221F2227221F01C021E0F80161918F0157
:10416000C22FC60F0E946520E7CF6C2FC701880DB4
:10417000991DCF911F910F91FF90EF90DF90CF90FD
:10418000BF90AF909F908F900C9465208F929F92DC
:10419000AF92BF92CF92DF92EF92FF920F931F9355
:1041A000CF934B017A016C01C40ED51E8C01C0E087
:1041B0005B01A81AB90AC501800F911F0C151D05D6
:1041C00099F00E945D20C11108C02C2FCC0F330B39
:1041D000232F221F2227221F01C021E0C22FC80F38
:1041E000F80181938F01E7CFC4018E0D9F1D0E94BE
:1041F0005D2021E030E0C81711F020E030E0C90177
:10420000CF911F910F91FF90EF90DF90CF90BF90D3
:10421000AF909F908F90089521E5829FC001112457
:1042200040E550E09D5F0C94872040E550E0BC01E4
:104230008EEA93E00C9487202DE0829FC001112428
:104240004CE050E09E5F0C94872069E080E090E0B5
:104250000E9465204DE450E060E876E081E090E067
:104260000C948720EF92FF920F931F93CF93DF93CD
:10427000CDB7DEB72C970FB6F894DEBF0FBECDBF1B
:10428000182F80FFC1C08AE08093B00689E1809337
:10429000B3061092B1061092B20683E08093B40682
:1042A0008AE097EDA3E2BCE38093B5069093B6064F
:1042B000A093B706B093B8068FE692E1A3E0BBE304
:1042C0008093B9069093BA06A093BB06B093BC0640
:1042D0001092BE0680E090E0A8ECB1E48093BF06A7
:1042E0009093C006A093C106B093C20680E090E010
:1042F000AAEFB3E48093C3069093C406A093C506C7
:10430000B093C6062AEF30E03093C8062093C70664
:1043100040E050E060E87FE34093C9065093CA064E
:104320006093CB067093CC061092BD0640E050E03F
:104330006AE773E440938006509381066093820697
:104340007093830640938406509385066093860697
:1043500070938706409388065093890660938A0677
:1043600070938B0680938C0690938D06A0938E0697
:10437000B0938F068093900690939106A093920637
:10438000B09393068093940690939506A093960617
:10439000B093970680E090EAACE0B7E4809398068B
:1043A00090939906A0939A06B0939B0680939C06DF
:1043B00090939D06A0939E06B0939F068093A006BF
:1043C0009093A106A093A206B093A30680E090E08C
:1043D000A8E4B3EC8093A4069093A506A093A60648
:1043E000B093A7068093A8069093A906A093AA0667
:1043F000B093AB068093AC069093AD06A093AE0647
:10440000B093AF060E94252111FF10C0CE01019686
:104410007C018CE0F70111928A95E9F700E0B70181
:10442000802F0E941C210F5F0830C9F712FF0AC0BD
:1044300060E080E093E00E94652060E081E593E029
:104440000E94652013FF05C060E08EEA93E00E94A1
:1044500065202C960FB6F894DEBF0FBECDBFDF915E
:10446000CF911F910F91FF90EF9008951F93CF93DD
:10447000DF93182FEB0181E5189FB00111247D5FB8
:1044800040E550E0CE010E94C620892B39F4188205
:10449000BE01812F0E940C2180E001C081E0DF91EC
:1044A000CF911F910895CF93DF93EC0140E550E049
:1044B0006EEA73E00E94C620892B31F41882CE0187
:1044C0000E94152180E001C081E0DF91CF91089525
:1044D0001F93CF93DF93182FEB018DE0189FB0014E
:1044E00011247E5F4CE050E0CE010E94C620892B53
:1044F00059F48CE0FE0111928A95E9F7BE01812FF3
:104500000E941C2180E001C081E0DF91CF911F91CA
:10451000089580E090E00E945D20893059F44DE4D8
:1045200050E061E070E080E896E00E94C62021E063
:10453000892B09F420E0822F0895CF92DF92EF9229
:10454000FF92CF93DF93C82F6A017B0120E030E018
:10455000A901C701B6010E94153887FDE2C0C43623
:1045600008F441C08CE98C0F20E0833098F590E08E
:10457000880F991F880F991F223059F0FC012330B2
:10458000F1F0213019F0E058F94F1FC0E457F94F0E
:104590001CC0EC01C856D94F20E030E040E752E49F
:1045A000C701B6010E94773A20E030E040E752E4CC
:1045B0000E94773A688379838A839B83AEC0EC55E7
:1045C000F94FF7FAF094F7F8F094C082D182E282C2
:1045D000F382A3C02F5F8A3008F4A5C0243009F409
:1045E000A2C08A50C2CFC701B6010E945A3B0E94A6
:1045F00098388C2F90E08C31910508F094C0FC0124
:10460000E75AFF4F0C94CD3B633008F48EC06093A3
:10461000B00683C06093B30680C06093B10602C049
:104620006093B2060E94141978C08091BD0666237B
:1046300011F0846007C08B7F05C08091BD066623A2
:1046400021F080648093BD0668C08F7BFBCF809192
:10465000BD06662311F08068F5CF8F77F3CF6093A6
:10466000B4065BC0C092B506D092B606E092B7061B
:10467000F092B80652C0C092B906D092BA06E09243
:10468000BB06F092BC0649C08091BD06662311F0BE
:104690008160D8CF8E7FD6CF8091BD06662321F072
:1046A00084FF45C08062CECF8F7DCCCF8091BD0688
:1046B000662311F0886001C0877F8093BD060E9449
:1046C000FE2A2BC08091BD06662311F08061BACF0F
:1046D0008F7CB8CF6093BE0620C0C092BF06D09238
:1046E000C006E092C106F092C20617C0C092C3068F
:1046F000D092C406E092C506F092C6060EC070E0E5
:104700007093C8066093C70608C0C092C906D092CD
:10471000CA06E092CB06F092CC060E94252180E0EA
:1047200007C084E005C083E003C086E001C08AE0E2
:10473000DF91CF91FF90EF90DF90CF9008950E948E
:104740008922811108C087E00E9415308FEF0E94F6
:1047500032210C947E300895882321F0813021F09D
:1047600080E1089584E0089588E00895882321F089
:10477000813021F080E8089580E2089580E4089572
:10478000882321F0813021F080E1089582E00895AE
:1047900084E008952F923F924F925F926F927F92A2
:1047A0008F929F92AF92BF92CF92DF92EF92FF9241
:1047B0000F931F93CF93DF93C0914302C11101C0A8
:1047C000C2E1C150D0914102CD1709F41BC1EC2EBA
:1047D000F12C29E2C29F800111240B5B1D4FF801CF
:1047E000A588B688C788D08C61A172A183A194A145
:1047F0009B01AC010E942037F80125A136A147A1F9
:1048000050A50E94773A4B018C019B01AC01B50188
:10481000C6010E94153887FD02C05401680189E273
:104820008E9DF0018F9DF00D1124EB5BFD4FC501B6
:10483000D601818B928BA38BB48BC11101C0C2E1D5
:10484000C150CD1761F029E22E9DC0012F9D900D22
:1048500011249C012B5B3D4F7901D9E233C080913B
:104860004402D8135EC00E949C195BC0AC2EB12CD0
:10487000DA9DC001DB9D900D1124FC01EB5BFD4F27
:104880006F01C11101C0C2E1C15080914402C8133F
:1048900002C00E949C19DA9D8001DB9D100D11243D
:1048A0000B5B1D4FF80185889688A788B08CA50101
:1048B000940161897289838994890E9415388111D4
:1048C00006C0760180914102C813D0CF2AC0F801FA
:1048D00061A172A183A194A19B01AC010E94203728
:1048E000F80125A136A147A150A50E94773AF7010A
:1048F00021893289438954890E9420372B013C0148
:10490000A50194010E941538F80187FF05C0418A6E
:10491000528A638A748AD5CF818A928AA38AB48A9A
:10492000D0CFD0914102F9E2DF9F800111240B5BCF
:104930001D4FC1E0CD0FC23109F4C0E02090430209
:1049400089E2382EC21509F45BC0CC2ED12C3C9CD8
:10495000C0013D9C900D11249C012B5B3D4F7901C2
:10496000F8014188528863887488F90181889288A7
:10497000A388B488A5019401C301B2010E9415382F
:1049800087FF24C0F80161A172A183A194A19B01BA
:10499000AC010E942037F80125A136A147A150A5FE
:1049A0000E94773A9B01AC01C301B2010E942037FB
:1049B0002B013C01A50194010E94153887FF06C018
:1049C000F701418A528A638A748ADC2F3C9CF00189
:1049D0003D9CF00D1124EB5BFD4F258936894789FD
:1049E000508D61897289838994890E94153881115B
:1049F00001C0DC2FCF5FC23109F4C0E08701A2CF34
:104A0000D0934102DF91CF911F910F91FF90EF90D2
:104A1000DF90CF90BF90AF909F908F907F906F90DE
:104A20005F904F903F902F9008958CE1E5E2F2E087
:104A3000DF011D928A95E9F7109244021092430219
:104A400081E08093420210924102089590914402C5
:104A500080914302891769F081E0890F823109F45E
:104A600080E020914102921302C080934102809322
:104A7000440208958091440290914302981739F0BE
:104A800029E2829FC00111248B5B9D4F089580E035
:104A900090E00895E0914402EF5FE23109F4E0E034
:104AA00080914302E81761F089E2E89FF001112448
:104AB000EB5BFD4F61897289838994890C94163B65
:104AC00060E070E0CB01089581E020914402909174
:104AD0004202291380E008952F923F924F925F92F5
:104AE0006F927F928F929F92AF92BF92CF92DF92FE
:104AF000EF92FF920F931F93CF93DF93CDB7DEB763
:104B0000E7970FB6F894DEBF0FBECDBF98A78FA36F
:104B10004D8F5E8F6F8F78A32DAB70904302472C23
:104B2000512C5AA249A229E2729E800111240B5BEA
:104B30001D4FD8011D961D921D921D921C925097DB
:104B4000F80115A216A217A210A6108289E996E70D
:104B5000A6E9BEE781A392A3A3A3B4A320918006F4
:104B6000309181064091820650918306AFA1B8A58D
:104B70006D917D918D919C910E94773A0E94443A6B
:104B80004B015C016D877E878F87988B209184060F
:104B9000309185064091860650918706EFA1F8A5D1
:104BA00064817581868197810E94773A0E94443A98
:104BB0006B017C01698B7A8B8B8B9C8B809125029E
:104BC00090912602A0912702B0912802140125019C
:104BD000281A390A4A0A5B0A8091290290912A020E
:104BE000A0912B02B0912C02B701A601481B590BD2
:104BF0006A0B7B0B420D531D641D751D77FF07C0AB
:104C000070956095509541955F4F6F4F7F4FF801BC
:104C1000418352836383748329E249A15AA1249F6B
:104C2000F001259FF00D1124EB5BFD4F8C199D09C0
:104C3000AE09BF09820D931DA41DB51DB7FF07C0A6
:104C4000B095A095909581959F4FAF4FBF4F8583AD
:104C50009683A783B087CE0101969EA38DA3A0E87B
:104C6000B6E0BCA7ABA729E2729E200111245CAA82
:104C70004BAABCA3ABA398AB8FA7212C312C1B8EC6
:104C800029E249A05AA0249DC001259D900D112420
:104C90008C010B5B1D4F9801235F3F4F3AAB29AB53
:104CA000A8014B5D5F4F5EA74DA7C80109969FAB5A
:104CB0008EABEBA9FCA9E20DF31DEB5BFD4FA9A99F
:104CC000BAA94D915D916D917C9181819281A38171
:104CD000B48184179507A607B70710F4DB01CA0152
:104CE000E9A9FAA980839183A283B3834B8C4110F5
:104CF00023C08091250290912602A0912702B091B5
:104D00002802A5019401281B390B4A0B5B0BDA0121
:104D1000C9018C0D9D1DAE1DBF1D409029025090F4
:104D20002A0260902B0270902C02BC01CD01641904
:104D300075098609970927C0BB8DB13069F5809147
:104D4000250290912602A0912702B0912802240109
:104D50003501481A590A6A0A7B0AB301A2014C19A3
:104D60005D096E097F098091290290912A02A09124
:104D70002B02B0912C022A013B01480E591E6A1EDB
:104D80007B1EC301B2010E94C938ABA1BCA12D9109
:104D90003D914D915C911FC0EDE0F0E0EC0FFD1FE7
:104DA000E20DF31D80819181A281B381F101EB5D60
:104DB000FD4F4080518062807380BC01CD01641939
:104DC0007509860997090E94C938EBA1FCA12081C9
:104DD0003181428153810E941F382B013C01AFA5D4
:104DE000B8A96D937D938D939D93B8ABAFA720E049
:104DF00030E0A9010E94153887FF07C08B8D0E9403
:104E0000B623F8019081892B8083A3019201C3010D
:104E1000B2010E94773AADA5BEA52D913D914D916D
:104E20005C910E942037EDA5FEA56083718382838B
:104E30009383FB8DFF5FFB8FF33009F442C09B8DA2
:104E40009230A9F5209188063091890640918A0612
:104E500050918B06AFA1B8A518966D917D918D915B
:104E60009C911B970E94773A0E94443A6D8B7E8BEF
:104E70008F8B988F40902D0250902E0260902F02C1
:104E800070903002DC01CB0184199509A609B7099D
:104E9000B7FF07C0B095A095909581959F4FAF4FF4
:104EA000BF4FEEA9FFA980839183A283B383F4E06F
:104EB0002F0E311C2BA13CA12C5F3F4F3CA32BA3F9
:104EC000F8CE0E94163B6B017C01ADA5BEA56D938B
:104ED0007D938D939C931397F80185859685A7857F
:104EE000B089892B8A2B8B2B09F42DC220E030E06E
:104EF000A9016D8D7E8D8F8D98A10E94153887FD3B
:104F000022C04DA8442061F0A70196016D8D7E8DD1
:104F10008F8D98A10E94773A6D8F7E8F8F8F98A387
:104F200020E030E040E85FE36D8D7E8D8F8D98A1AD
:104F30000E94153887FF0FC01D8E1E8E20E82F8F10
:104F40003FE338A308C049E94D8F56E75E8F86E9F5
:104F50008F8F9EE798A3A701960160E070E080E83C
:104F60009FE30E941F386FA378A789A79AA7A5E29D
:104F7000B2E0BCA3ABA3FE013D96FA8FE98FC12C32
:104F8000D12C760129E249A05AA0249DC001259D7B
:104F9000900D11249C012A593D4F3C8F2B8FADA1C0
:104FA000BEA18D909D90AD90BC9020E030E0A90115
:104FB000C501B4010E941538882309F472C02FA1DD
:104FC00038A549A55AA5C501B4010E94773A2B011D
:104FD0003C01EDA1FEA160837183828393839B01D9
:104FE000AC0160E070E080E89FE30E941F384B0155
:104FF0005C01E894B7F8ABA5BCA51C962D913D913A
:105000004D915C911F97C501B4010E94773A1B0135
:105010008C019B01AC016D8D7E8D8F8D98A10E94BE
:10502000153887FD04C02D8E3E8E0F8F18A3EB8D93
:10503000FC8D2080318002811381ABA5BCA55896E0
:105040002D913D914D915C915B97C501B4010E94FA
:10505000773A4B015C019B01AC01B101C8010E9490
:10506000153887FD02C014018501C101D801EB8DFF
:10507000FC8D80839183A283B383ABA1BCA11C96DA
:105080002D913D914D915C911F97C301B2010E94FA
:10509000773A9B01AC01C701B6010E941F376B0133
:1050A0007C01EDA1FEA13496FEA3EDA32BA13CA1B2
:1050B0002C5F3F4F3CA32BA34BA55CA54C5F5F4FE0
:1050C0005CA74BA7498C5A8CE415F50509F067CF0E
:1050D000909143028091440298130FC089E269A025
:1050E0007AA0869DF001879DF00D1124EB5BFD4FAA
:1050F000118A128A138A148A14C02FEE3FEF4FE7E9
:105100005FE3C701B6010E94373A18167CF489E2C2
:1051100049A05AA0849DF001859DF00D1124EB5B00
:10512000FD4F118E128E138E148E6DC02FEE3FEF39
:105130004FE75FEBC701B6010E94373A181644F0FB
:105140008FEEC82EDD24DA948FE7E82E8FEBF82E51
:10515000A701960160E070E080E89FE30E941F379E
:1051600020E030E040E05FE30E94773A0E94163B87
:105170006B017C0189E269A07AA0869DF001879D80
:10518000F00D1124EB5BFD4F2091B5063091B60672
:105190004091B7065091B80661A172A183A194A174
:1051A0000E94773AA70196010E94773A4B015C0171
:1051B000A701960160E070E080E89FE30E941F373E
:1051C0009B01AC01C501B4010E941F387B018C0119
:1051D00020E030E0A9010E94153887FF04C0E12CCF
:1051E000F12C00E010E089E249A05AA0849DF00172
:1051F000859DF00D1124EB5BFD4FA701B801418F98
:10520000528F638F748F2D8D3E8D4F8D58A16D8D74
:105210007E8D8F8D98A10E94773A7B018C0189E267
:1052200069A07AA0869DF001879DF00D1124EB5BAB
:10523000FD4FC701D801858F968FA78FB0A3A18C92
:10524000B28CC38CD48C60903D0270903E028090F2
:105250003F02909040029301A401B701C8010E944F
:10526000153887FD05C0762D672D982D892D04C032
:105270007E2D6F2D902F812F272F362F492F582FBE
:10528000B501C6010E94153887FD0DC09301A40128
:10529000B701C8010E94153887FD03C0530164019E
:1052A00002C05701680189E249A05AA0849DF0011B
:1052B000859DF00D1124EB5BFD4FC501D601858B5B
:1052C000968BA78BB08F8CE0FE013196A1E3B2E004
:1052D00001900D928A95E1F7C701D80180933D02B4
:1052E00090933E02A0933F02B09340028CE0FE01F7
:1052F0003D96A5E2B2E001900D928A95E1F780918A
:105300004202809343028F5F823109F480E08093F0
:105310004202E7960FB6F894DEBF0FBECDBFDF9115
:10532000CF911F910F91FF90EF90DF90CF90BF90A2
:10533000AF909F908F907F906F905F904F903F9035
:105340002F900C94CA23E7960FB6F894DEBF0FBED9
:10535000CDBFDF91CF911F910F91FF90EF90DF9024
:10536000CF90BF90AF909F908F907F906F905F9005
:105370004F903F902F900895CF93C0E0C1110DC082
:105380008BE295E00E94E536609325027093260239
:1053900080932702909328021FC0C13069F48BE2EA
:1053A00095E00E9403376093290270932A0280934C
:1053B0002B0290932C0210C08091330590913405FC
:1053C000A0913505B091360580932D0290932E0261
:1053D000A0932F02B0933002CF5FC33079F6CF9104
:1053E00008958091430290914402891708F48E5EDB
:1053F000891B08950E949C19809144028093410268
:105400000C94CA234F925F926F927F92AF92BF9299
:10541000CF92DF92EF92FF920F931F93CF93DF9380
:105420006C01FB015A018081D601A80FB11D9C912E
:105430008D019D3231F40E5F1F4F11969C91D1E08A
:105440000AC09B3219F00F5F1F4F04C00E5F1F4F41
:1054500011969C91D0E0512C612CC0E020E030E00E
:10546000A901780160ED762E790E89E08715D8F0D4
:105470006394A8E0A61598F05110C150A5E0B0E0E3
:105480000E94D33BDC01CB01880F991FAA1FBB1FD1
:105490009C01AD01270D311D411D511D0BC0511047
:1054A00009C0CF5F07C0BEEF7B1209C0511007C013
:1054B000552453940F5F1F4FD7019C91D2CF662084
:1054C00009F450C07F01CA01B9010E94C7382B01FD
:1054D0003C0120E030E0A9010E941538882349F101
:1054E000CF3F64F42AE037ED43E25CE3C301B2014D
:1054F0000E94773A2B013C01CE5FF2CFCF3F59F4A7
:105500002DEC3CEC4CEC5DE3C301B2010E94773A18
:105510002B013C010EC0CC2361F020E030E040E2E2
:1055200051E4C301B2010E94773A2B013C01C15002
:10553000F2CFDD2351F077FA709477F87094F5018B
:10554000408251826282738206C0D5014D925D9283
:105550006D927C9213970C191D090150F70100837D
:1055600081E001C080E0DF91CF911F910F91FF900A
:10557000EF90DF90CF90BF90AF907F906F905F9053
:105580004F900895009741F0EFE9FFE03197F1F770
:1055900000C000000197F6CF08958F929F92AF92BE
:1055A000BF92CF92DF92EF92FF9269017A019B0145
:1055B000AC010E94773A4B015C01A7019601C7013B
:1055C000B6010E94773A9B01AC01C501B4010E946B
:1055D0002037FF90EF90DF90CF90BF90AF909F90DB
:1055E0008F900C94163BEBE6F0E08081897E8083FF
:1055F000E8E6F0E080818E7F8083089584B1897E23
:1056000084B985B1866185B98091BD0683FF0BC0E1
:1056100080916B00866180936B008091680081604F
:105620008093680008950C94F32AEF92FF920F93F1
:105630001F93CF93DF93C3B1C6718091BD0686FDE2
:1056400002C086E1C827CC23C1F000E010E0D0E022
:10565000EE24E394F12C802F0E94C0238C2339F098
:10566000C701002E01C0880F0A94EAF7D82B0F5FFC
:105670001F4F0330110579F701C0D0E08D2FDF9166
:10568000CF911F910F91FF90EF9008951F920F926D
:105690000FB60F9211242F933F934F935F936F9305
:1056A0007F938F939F93AF93BF93EF93FF938091DB
:1056B0002805813071F08091470581110AC00E9450
:1056C000BF089FB7F8948091470583608093470592
:1056D0009FBFFF91EF91BF91AF919F918F917F916C
:1056E0006F915F914F913F912F910F900FBE0F904F
:1056F0001F9018952F923F924F925F926F927F92D8
:105700008F929F92AF92BF92CF92DF92EF92FF92D1
:105710000F931F93CF93DF93CDB7DEB76B970FB681
:10572000F894DEBF0FBECDBF9091270591114AC2FC
:105730008E8B24EA822E26E0922E9E01235F3F4F1D
:10574000590100E010E0C12CD12C7601282E312C1B
:10575000602E802F0E94AC23D5018C93023011055E
:1057600051F080E00E94AC23782E81E00E94AC23AF
:105770008729F5018083C10102C0959587956A94B8
:10578000E2F780FF17C020E030E040EC5FEBD4018F
:105790006D917D918D919C910E94773A2B013C01F6
:1057A0009B01AC01C701B6010E94373A181614F0EC
:1057B000620173010F5F1F4FBFEFAB1ABB0AE4E03A
:1057C0008E0E911C0330110519F64090C3065090BF
:1057D000C4066090C5067090C606F4E0F88B01E040
:1057E0006BE275E0CE0101960E94CA369E012F5FE2
:1057F0003F4F4901A12CB12C1B8E10E0A70196014F
:1058000050582A8B3B8B4C8B5D8BA98AC1010A2C8B
:1058100002C0959587950A94E2F780FF72C03B8D90
:105820003F5F3B8FA114B104F1F48BE295E00E943D
:10583000033760932B0570932C0580932D0590936F
:105840002E059B01AC0188279927DC01821B930B55
:10585000A40BB50B80932F0590933005A0933105D1
:10586000B093320520C039893130A9F48BE295E03C
:105870000E94E53660932F057093300580933105C3
:105880009093320560932B0570932C0580932D0522
:1058900090932E0508C01092330510923405109293
:1058A0003505109236058091BE0690E0098802C049
:1058B000959587950A94E2F780FF08C001110FC003
:1058C000F401C082D182E282F38213C0002339F056
:1058D000D401CD92DD92ED92FC9213970AC02A89F1
:1058E0003B894C895D89D4012D933D934D935C9305
:1058F0001397EDE0F0E0EC0FFD1FEA0DFB1D80813A
:10590000182BBFEFAB1ABB0AE4E08E0E911CF3E03C
:10591000AF16B10409F079CF2B8D622F70E080E0D3
:1059200090E00E94C7380E94163B9B01AC01C30166
:10593000B2010E94773AAB01BC01109344054F8B32
:10594000588F698F7A8F0E94BC2920E04F89588D2B
:10595000698D7A8DCE0101960E946C250E94BE1938
:105960000E949516002339F10E94152B4F85409512
:105970002E859D85922B9095FE013D9620E030E08E
:10598000682F70E08191812379F0DB01022E02C043
:10599000B595A7950A94E2F7A0FF06C0223031051D
:1059A00011F4142301C019232F5F3F4F2330310519
:1059B00049F7109344050E94BE19809145058473F0
:1059C000C9F080914505807329F00E94BF080E94AC
:1059D000D114F8C00111F1C00E94152B3E89832318
:1059E000A1F79FB7F894809145058B7F809345057B
:1059F0009FBF04C0812F8C7109F0B4CF0E944E1953
:105A00000E9415258091C7069091C8060E94C22A5F
:105A100041E00427C9F020E030E040EA50E4609122
:105A2000C9067091CA068091CB069091CC060E945F
:105A3000773A6B017C014090BF065090C0066090A1
:105A4000C1067090C20610C0C090C906D090CA06A8
:105A5000E090CB06F090CC064090C3065090C40670
:105A60006090C5067090C60658895150588B5111E8
:105A7000B7CE87E2C82E85E0D82E90E8E92E96E0D2
:105A8000F92E00E010E0C101002E02C09595879527
:105A90000A94E2F780FF82C08091BE0690E0002E5B
:105AA00002C0959587950A94E2F780FF17C0209170
:105AB000C9063091CA064091CB065091CC06D70159
:105AC00094966D917D918D919C9197970E9420372E
:105AD000F701208131814281538110C08091C90634
